:0400000007EF00F016
:0A0008005E8262ED0BF09AEF0CF03F
:0F0800000053686F540020002D00440058000082
:1008100020EEDAF010EE69F00E0EDBCFE3FFE80613
:10082000FCE220EECBF010EE78F00E0EDBCFE3FF13
:10083000E806FCE220EEBCF010EE87F00E0EDBCFF7
:10084000E3FFE806FCE220EEADF010EE96F00E0EAF
:10085000DBCFE3FFE806FCE20001EF510001F011FD
:10086000D8A46AD0810E68EC0CF0080E0001626F0B
:10087000080E0001636FEAEC0DF0000E0001A66F98
:10088000010EA56F4AD0690E0001A525D96E000E94
:100890000001A621DA6EDF5068EC0CF0080E0001B2
:1008A000626F080E0001636FEAEC0DF0FF0E0001AD
:1008B000656FFF0E0001666FA5C067F0A6C068F007
:1008C000000165510001672700016651000168239E
:1008D000690E00016725D96E000E00016821DA6EED
:1008E000DF5068EC0CF0060E0001626F080E00018C
:1008F000636FEAEC0DF00001A54BA62B190E47EC37
:100900000EF00001775168EC0CF0060E0001626FEA
:10091000080E0001636FEAEC0DF00001A6BFB3D72B
:100920000001A65105E10F0E0001A55DD8A0ABD7CF
:10093000000E5D6E000E5C6E0001EF050001F0110F
:10094000D8A46AD0C10E68EC0CF0080E0001626FEA
:10095000080E0001636FEAEC0DF0000E0001A86FB5
:10096000010EA76F4AD0780E0001A725D96E000EA0
:100970000001A821DA6EDF5068EC0CF0080E0001CF
:10098000626F080E0001636FEAEC0DF0FF0E0001CC
:10099000656FFF0E0001666FA7C067F0A8C068F022
:1009A00000016551000167270001665100016823BD
:1009B000780E00016725D96E000E00016821DA6EFD
:1009C000DF5068EC0CF0060E0001626F080E0001AB
:1009D000636FEAEC0DF00001A74BA82B190E47EC52
:1009E0000EF00001865168EC0CF0060E0001626FFB
:1009F000080E0001636FEAEC0DF00001A8BFB3D749
:100A00000001A85105E10F0E0001A75DD8A0ABD7EA
:100A1000000E5D6E010E5C6E020E0001EF1900010A
:100A2000F011D8A46AD0950E68EC0CF0080E000105
:100A3000626F080E0001636FEAEC0DF0000E00011A
:100A4000AA6F010EA96F4AD0870E0001A925D96EA1
:100A5000000E0001AA21DA6EDF5068EC0CF0080EDF
:100A60000001626F080E0001636FEAEC0DF0FF0EEB
:100A70000001656FFF0E0001666FA9C067F0AAC094
:100A800068F000016551000167270001665100010F
:100A90006823870E00016725D96E000E00016821CA
:100AA000DA6EDF5068EC0CF0060E0001626F080E83
:100AB0000001636FEAEC0DF00001A94BAA2B190E9F
:100AC00047EC0EF00001955168EC0CF0060E0001A9
:100AD000626F080E0001636FEAEC0DF00001AABF1F
:100AE000B3D70001AA5105E10F0E0001A95DD8A0FE
:100AF000ABD7000E5D6E020E5C6E030E0001EF19A7
:100B00000001F011D8A46AD0D50E68EC0CF0080EE4
:100B10000001626F080E0001636FEAEC0DF0000E39
:100B20000001AC6F010EAB6F4AD0960E0001AB25F1
:100B3000D96E000E0001AC21DA6EDF5068EC0CF0CB
:100B4000080E0001626F080E0001636FEAEC0DF001
:100B5000FF0E0001656FFF0E0001666FABC067F00E
:100B6000ACC068F0000165510001672700016651C3
:100B700000016823960E00016725D96E000E000162
:100B80006821DA6EDF5068EC0CF0060E0001626F2F
:100B9000080E0001636FEAEC0DF00001AB4BAC2BCB
:100BA000190E47EC0EF00001A45168EC0CF0060E93
:100BB0000001626F080E0001636FEAEC0DF00001A6
:100BC000ACBFB3D70001AC5105E10F0E0001AB5D26
:100BD000D8A0ABD7000E5D6E030E5C6E0001EEBFB9
:100BE00012000001EE5105E1040E0001ED5DD8A0F8
:100BF0001200000E0001EE6F000EED6F120020EEED
:100C0000DAF010EE0AF00E0EDBCFE3FFE806FCE2AE
:100C100020EECBF010EE19F00E0EDBCFE3FFE8066E
:100C2000FCE220EEBCF010EE28F00E0EDBCFE3FF6E
:100C3000E806FCE220EEADF010EE37F00E0EDBCF52
:100C4000E3FFE806FCE20001EF510001F011D8A437
:100C500052D0810EC9EC0CF0080E036E080E046E23
:100C600005EC0EF0000E476E010E466E38D00A0EEF
:100C70004624D96E000E4720DA6EDF50C9EC0CF026
:100C8000080E036E080E046E05EC0EF0FF0E066EE5
:100C9000FF0E076E46C008F047C009F00650082650
:100CA000075009220A0E0824D96E000E0920DA6EB8
:100CB000DF50C9EC0CF0060E036E080E046E05EC56
:100CC0000EF0464A472A190E56EC0EF01850C9ECA1
:100CD0000CF0060E036E080E046E05EC0EF047BE17
:100CE000C6D7475004E10F0E465CD8A0C0D7000E0F
:100CF0005D6E000E5C6E0001EF050001F011D8A4DE
:100D000052D0C10EC9EC0CF0080E036E080E046E32
:100D100005EC0EF0000E496E010E486E38D0190E2B
:100D20004824D96E000E4920DA6EDF50C9EC0CF071
:100D3000080E036E080E046E05EC0EF0FF0E066E34
:100D4000FF0E076E48C008F049C009F0065008269B
:100D500007500922190E0824D96E000E0920DA6EF8
:100D6000DF50C9EC0CF0060E036E080E046E05ECA5
:100D70000EF0484A492A190E56EC0EF02750C9ECDD
:100D80000CF0060E036E080E046E05EC0EF049BE64
:100D9000C6D7495004E10F0E485CD8A0C0D7000E5A
:100DA0005D6E010E5C6E020E0001EF190001F01184
:100DB000D8A452D0950EC9EC0CF0080E036E080EA4
:100DC000046E05EC0EF0000E4B6E010E4A6E38D02C
:100DD000280E4A24D96E000E4B20DA6EDF50C9EC83
:100DE0000CF0080E036E080E046E05EC0EF0FF0EFC
:100DF000066EFF0E076E4AC008F04BC009F00650A1
:100E0000082607500922280E0824D96E000E092052
:100E1000DA6EDF50C9EC0CF0060E036E080E046E9D
:100E200005EC0EF04A4A4B2A190E56EC0EF03650DD
:100E3000C9EC0CF0060E036E080E046E05EC0EF005
:100E40004BBEC6D74B5004E10F0E4A5CD8A0C0D7AA
:100E5000000E5D6E020E5C6E030E0001EF190001C4
:100E6000F011D8A452D0D50EC9EC0CF0080E036EC8
:100E7000080E046E05EC0EF0000E4D6E010E4C6E69
:100E800038D0370E4C24D96E000E4D20DA6EDF506C
:100E9000C9EC0CF0080E036E080E046E05EC0EF0A3
:100EA000FF0E066EFF0E076E4CC008F04DC009F035
:100EB0000650082607500922370E0824D96E000E66
:100EC0000920DA6EDF50C9EC0CF0060E036E080E36
:100ED000046E05EC0EF04C4A4D2A190E56EC0EF03D
:100EE0004550C9EC0CF0060E036E080E046E05ECBE
:100EF0000EF04DBEC6D74D5004E10F0E4C5CD8A08D
:100F0000C0D7000E5D6E030E5C6E0001EEBF1200D6
:100F10000001EE5105E1040E0001ED5DD8A01200C4
:100F2000000E0001EE6F000EED6F12000001EF5198
:100F30000001F011D8A437D0800E68EC0CF0060E3A
:100F40000001626F080E0001636FEAEC0DF0C00E45
:100F500068EC0CF0060E0001626F080E0001636F72
:100F6000EAEC0DF0940E68EC0CF0060E0001626FD6
:100F7000080E0001636FEAEC0DF0D40E68EC0CF083
:100F8000060E0001626F080E0001636FEAEC0DF0BF
:100F9000800E68EC0CF00A0E0001626F080E000172
:100FA000636FEAEC0DF00001EF050001F011D8A429
:100FB00037D0800E68EC0CF0060E0001626F080E50
:100FC0000001636FEAEC0DF0C00E68EC0CF0060E49
:100FD0000001626F080E0001636FEAEC0DF0940EE1
:100FE00068EC0CF0060E0001626F080E0001636FE2
:100FF000EAEC0DF0D40E68EC0CF0060E0001626F06
:10100000080E0001636FEAEC0DF0800E68EC0CF046
:101010000A0E0001626F080E0001636FEAEC0DF02A
:10102000020E0001EF190001F011D8A437D0800E94
:1010300068EC0CF0060E0001626F080E0001636F91
:10104000EAEC0DF0C00E68EC0CF0060E0001626FC9
:10105000080E0001636FEAEC0DF0940E68EC0CF0E2
:10106000060E0001626F080E0001636FEAEC0DF0DE
:10107000D40E68EC0CF0060E0001626F080E000141
:10108000636FEAEC0DF0C00E68EC0CF00A0E000184
:10109000626F080E0001636FEAEC0DF0030E0001B1
:1010A000EF190001F011D8A437D0800E68EC0CF0D5
:1010B000060E0001626F080E0001636FEAEC0DF08E
:1010C000C00E68EC0CF0060E0001626F080E000105
:1010D000636FEAEC0DF0940E68EC0CF0060E000164
:1010E000626F080E0001636FEAEC0DF0D40E68EC3D
:1010F0000CF0060E0001626F080E0001636FEAEC4F
:101100000DF0940E68EC0CF00A0E0001626F080EF0
:101110000001636FEAEC0DF00001EF07D8A0F007C3
:101120000001EF290AE10001F029D8A41200000E05
:101130000001F06F000EEF6F120012000001EF517E
:101140000001F011D8A437D0000E68EC0CF0060EA8
:101150000001626F080E0001636FEAEC0DF0400EB3
:1011600068EC0CF0060E0001626F080E0001636F60
:10117000EAEC0DF0140E68EC0CF0060E0001626F44
:10118000080E0001636FEAEC0DF0540E68EC0CF0F1
:10119000060E0001626F080E0001636FEAEC0DF0AD
:1011A000400E68EC0CF00A0E0001626F080E0001A0
:1011B000636FEAEC0DF00001EF050001F011D8A417
:1011C00037D0000E68EC0CF0060E0001626F080EBE
:1011D0000001636FEAEC0DF0400E68EC0CF0060EB7
:1011E0000001626F080E0001636FEAEC0DF0140E4F
:1011F00068EC0CF0060E0001626F080E0001636FD0
:10120000EAEC0DF0540E68EC0CF0060E0001626F73
:10121000080E0001636FEAEC0DF0140E68EC0CF0A0
:101220000A0E0001626F080E0001636FEAEC0DF018
:10123000020E0001EF190001F011D8A437D0000E02
:1012400068EC0CF0060E0001626F080E0001636F7F
:10125000EAEC0DF0400E68EC0CF0060E0001626F37
:10126000080E0001636FEAEC0DF0140E68EC0CF050
:10127000060E0001626F080E0001636FEAEC0DF0CC
:10128000540E68EC0CF0060E0001626F080E0001AF
:10129000636FEAEC0DF0540E68EC0CF00A0E0001DE
:1012A000626F080E0001636FEAEC0DF0030E00019F
:1012B000EF190001F011D8A437D0000E68EC0CF043
:1012C000060E0001626F080E0001636FEAEC0DF07C
:1012D000400E68EC0CF0060E0001626F080E000173
:1012E000636FEAEC0DF0140E68EC0CF0060E0001D2
:1012F000626F080E0001636FEAEC0DF0540E68ECAB
:101300000CF0060E0001626F080E0001636FEAEC3C
:101310000DF0540E68EC0CF00A0E0001626F080E1E
:101320000001636FEAEC0DF00001EF4BF02B040EAF
:101330000001EF190001F011D8A41200000E000105
:10134000F06F030EEF6F12000001EF510001F0117A
:10135000D8A42DD0800EC9EC0CF0060E036E080E3A
:10136000046E05EC0EF0C00EC9EC0CF0060E036E18
:10137000080E046E05EC0EF0940EC9EC0CF0060E8F
:10138000036E080E046E05EC0EF0D40EC9EC0CF0E2
:10139000060E036E080E046E05EC0EF0800EC9EC0E
:1013A0000CF00A0E036E080E046E05EC0EF0000140
:1013B000EF050001F011D8A42DD0800EC9EC0CF07F
:1013C000060E036E080E046E05EC0EF0C00EC9EC9E
:1013D0000CF0060E036E080E046E05EC0EF0940E73
:1013E000C9EC0CF0060E036E080E046E05EC0EF050
:1013F000D40EC9EC0CF0060E036E080E046E05EC5C
:101400000EF0800EC9EC0CF00A0E036E080E046E8E
:1014100005EC0EF0020E0001EF190001F011D8A446
:101420002DD0800EC9EC0CF0060E036E080E046E73
:1014300005EC0EF0C00EC9EC0CF0060E036E080EA3
:10144000046E05EC0EF0940EC9EC0CF0060E036E63
:10145000080E046E05EC0EF0D40EC9EC0CF0060E6E
:10146000036E080E046E05EC0EF0C00EC9EC0CF015
:101470000A0E036E080E046E05EC0EF0030E00015A
:10148000EF190001F011D8A42DD0800EC9EC0CF09A
:10149000060E036E080E046E05EC0EF0C00EC9ECCD
:1014A0000CF0060E036E080E046E05EC0EF0940EA2
:1014B000C9EC0CF0060E036E080E046E05EC0EF07F
:1014C000D40EC9EC0CF0060E036E080E046E05EC8B
:1014D0000EF0940EC9EC0CF00A0E036E080E046EAA
:1014E00005EC0EF00001EF07D8A0F0070001EF298E
:1014F0000AE10001F029D8A41200000E0001F06FEB
:10150000000EEF6F120012000001EF510001F01108
:10151000D8A42DD0000EC9EC0CF0060E036E080EF8
:10152000046E05EC0EF0400EC9EC0CF0060E036ED6
:10153000080E046E05EC0EF0140EC9EC0CF0060E4D
:10154000036E080E046E05EC0EF0540EC9EC0CF0A0
:10155000060E036E080E046E05EC0EF0400EC9EC8C
:101560000CF00A0E036E080E046E05EC0EF000017E
:10157000EF050001F011D8A42DD0000EC9EC0CF03D
:10158000060E036E080E046E05EC0EF0400EC9EC5C
:101590000CF0060E036E080E046E05EC0EF0140E31
:1015A000C9EC0CF0060E036E080E046E05EC0EF08E
:1015B000540EC9EC0CF0060E036E080E046E05EC1A
:1015C0000EF0140EC9EC0CF00A0E036E080E046E39
:1015D00005EC0EF0020E0001EF190001F011D8A485
:1015E0002DD0000EC9EC0CF0060E036E080E046E32
:1015F00005EC0EF0400EC9EC0CF0060E036E080E62
:10160000046E05EC0EF0140EC9EC0CF0060E036E21
:10161000080E046E05EC0EF0540EC9EC0CF0060E2C
:10162000036E080E046E05EC0EF0540EC9EC0CF0BF
:101630000A0E036E080E046E05EC0EF0030E000198
:10164000EF190001F011D8A42DD0000EC9EC0CF058
:10165000060E036E080E046E05EC0EF0400EC9EC8B
:101660000CF0060E036E080E046E05EC0EF0140E60
:10167000C9EC0CF0060E036E080E046E05EC0EF0BD
:10168000540EC9EC0CF0060E036E080E046E05EC49
:101690000EF0540EC9EC0CF00A0E036E080E046E28
:1016A00005EC0EF00001EF4BF02B040E0001EF19DA
:1016B0000001F011D8A41200000E0001F06F030E1B
:1016C000EF6F12000600FACF4EF0FBCF4FF0E9CFDC
:1016D00050F0EACF51F0E1CF52F0E2CF53F0D9CF42
:1016E00054F0DACF55F0F3CF56F0F4CF57F0F6CFF1
:1016F00058F0F7CF59F0F8CF5AF0F5CF5BF0F2A4DD
:1017000028D00001F54BF62BB30ED76EB50ED66E72
:10171000F29483A604D083B6FED784EC0AF083A2A9
:1017200004D083B2FED7A4EC09F083A404D083B420
:10173000FED7FFEC05F00A0E0001F5190001F611C5
:10174000D8A407D0000E0001F66F000EF56F89ECEB
:101750000EF05BC0F5FF5AC0F8FF59C0F7FF58C044
:10176000F6FF57C0F4FF56C0F3FF55C0DAFF54C070
:10177000D9FF53C0E2FF52C0E1FF51C0EAFF50C0A1
:10178000E9FF4FC0FBFF4EC0FAFF5E92110000015F
:10179000656FF00E8116F00E9316939C939A9398B2
:1017A0008A9C8A9A8A987DEC0EF0300EF2EC0CF04E
:1017B000050E47EC0EF0300EF2EC0CF0010E47EC8B
:1017C0000EF0320EF2EC0CF0B0EC0DF00009D8A4E3
:1017D000FBD7B0EC0DF00009D8A4FBD70001655190
:1017E000F2EC0CF0B0EC0DF00009D8A4FBD7080E19
:1017F000F2EC0CF0B0EC0DF00009D8A4FBD70F0E02
:10180000F2EC0CF0B0EC0DF00009D8A4FBD7010EFF
:10181000F2EC0CF0B0EC0DF00009D8A4FBD7040EEC
:10182000F2EC0CF0B0EC0DF00009D8A4FBD7800E60
:1018300068EC0CF01200E9C065F0EAC066F0EBC09D
:1018400067F0ECC068F0000E0001F06F000EEF6F63
:10185000800E68EC0CF0060E0001626F080E0001AD
:10186000636FEAEC0DF0C00E68EC0CF0060E0001A0
:10187000626F080E0001636FEAEC0DF0940E68ECE5
:101880000CF0060E0001626F080E0001636FEAECB7
:101890000DF0D40E68EC0CF0060E0001626F080E1D
:1018A0000001636FEAEC0DF0650E0001EF25D96EC3
:1018B000000E0001F021DA6EDF5068EC0CF00A0E29
:1018C0000001626F080E0001636FEAEC0DF0120078
:1018D0000001646FF00E9316F00E81160001645142
:1018E0000001616F626B0001618F040E0001636F84
:1018F00000016235623361330001632FF9D70001C3
:1019000061510F0B81128A9C8A9A81EC0EF08A88B1
:1019100081EC0EF08A98F00E8116000164510F0BD5
:10192000811281EC0EF08A8881EC0EF08A980F0EFD
:1019300093121200EA0EF66E1A0EF76E000EF86E93
:1019400001EE00F010EE3CF00900F5CFEEFFE5509F
:10195000E150FAE16C0EF66E1A0EF76E000EF86E9C
:1019600000EEADF010EE40F00900F5CFEEFFE550CF
:10197000E150FAE100EEEDF00C0EEE6AE806FDE152
:101980005D6A5C6A5E905E92000EF86E00011FEF69
:101990000EF0056EF00E9316F00E81160550026ED5
:1019A000036A028E040E046E033403320232042EE4
:1019B000FBD702500F0B81128A9C8A9A85EC0EF09D
:1019C0008A8885EC0EF08A98F00E811605500F0B70
:1019D000811285EC0EF08A8885EC0EF08A980F0E45
:1019E000931212000001616FF00E9316F00E811633
:1019F000000161390F0B0F0B81128A9C8A9A81ECCE
:101A00000EF08A8881EC0EF08A98F00E81160001A3
:101A100061510F0B811281EC0EF08A8881EC0EF07F
:101A20008A980F0E931212000001616FF00E931648
:101A3000F00E8116000161390F0B0F0B81128A8A9B
:101A40008A9C81EC0EF08A8881EC0EF08A98F00E68
:101A50008116000161510F0B811281EC0EF08A8812
:101A600081EC0EF08A980F0E93121200D5D6D7D8BB
:101A7000D9DADBDCDDDEDFE0E1E2E39596979899E9
:101A80009A9B9C9D9E9FA0A1A2A3C1C2C3C4C5C690
:101A9000C7C8C9CACBCCCDCECF8182838485868787
:101AA00088898A8B8C8D8E8F80C094D4026EF00EC4
:101AB0009316F00E811602380F0B0F0B81128A8AD3
:101AC0008A9C85EC0EF08A8885EC0EF08A98F00EE0
:101AD000811602500F0B811285EC0EF08A8885EC7E
:101AE0000EF08A980F0E93121200D5D6D7D8D9DAF5
:101AF000DBDCDDDEDFE0E1E2E395969798999A9BE7
:101B00009C9D9E9FA0A1A2A3C1C2C3C4C5C6C7C8B5
:101B1000C9CACBCCCDCECF81828384858687888984
:101B20008A8B8C8D8E8F0F0EAF6E900EAB6E200E4B
:101B3000AC6E949C948E9E9A9F9A9D8AF28CD59EB0
:101B4000F28AF294D59CD596D590D592D584D59A23
:101B5000B30ED76EB50ED66ED58EF28EF28C120005
:101B60008A8C8A9A81EC0EF08A8881EC0EF081A62C
:101B70000AD08A9881EC0EF08A8881EC0EF08A985F
:101B80008A9C010E12008A9881EC0EF08A8881EC02
:101B90000EF08A988A9C000E12008A8C8A9A85EC34
:101BA0000EF08A8885EC0EF081A60AD08A9885EC22
:101BB0000EF08A8885EC0EF08A988A9C010E12003D
:101BC0008A9885EC0EF08A8885EC0EF08A988A9CBB
:101BD000000E120010D0B0EC0DF00009D8A4FBD715
:101BE00062C0F6FF63C0F7FF0800F55014EC0DF07B
:101BF0000001624B632B62C0F6FF63C0F7FF080071
:101C0000F5500009D8B41200E6D70FD0CDEC0DF096
:101C10000009D8A4FBD703C0F6FF04C0F7FF0800F3
:101C2000F55056EC0DF0034A042A03C0F6FF04C039
:101C3000F7FF0800F5500009D8B41200E7D793EC7D
:101C40000DF038EC0EF01BEC0CF083A604D083B63C
:101C5000FED79EEC08F083A204D083B2FED796ECA8
:101C600007F083A4F2D783B4FED708EC04F0EDD7D5
:101C7000280EC7EC0BF0B0EC0DF00009D8A4FBD790
:101C8000060EF2EC0CF00C0EF2EC0CF0120000015F
:101C9000616F0D0E0001606FFB0EE82EFED7602F06
:101CA000FCD700D00001612FF4D71200026E0D0E98
:101CB000016EFC0EE82EFED7012EFCD7022EF7D7C0
:101CC00012000001606FC80E00D0E82EFDD70001A1
:101CD000602FF9D712000001606F030EE82EFED7C7
:101CE00000F00001602FF9D71200016E030EE82EFC
:101CF000FED700F0012EFAD71200B40E61EC0EF000
:101D00001200780E6BEC0EF01200780E75EC0EF0EF
:0A1D100012000001F14BF22B12004B
:020000040020DA
:08000000FFFFFFFFFFFFFFFF00
:020000040030CA
:0E00000000051F1FFF8185FF0FC00FE00F409E
:00000001FF
